{
  "_format": "hh-sol-artifact-1",
  "contractName": "ChaumPedersen",
  "sourceName": "contracts/ChaumPedersen.sol",
  "abi": [
    {
      "inputs": [],
      "name": "FIELD_MODULUS",
      "outputs": [
        {
          "internalType": "uint256",
          "name": "",
          "type": "uint256"
        }
      ],
      "stateMutability": "view",
      "type": "function"
    },
    {
      "inputs": [],
      "name": "GENERATOR_G",
      "outputs": [
        {
          "internalType": "uint256",
          "name": "",
          "type": "uint256"
        }
      ],
      "stateMutability": "view",
      "type": "function"
    },
    {
      "inputs": [
        {
          "internalType": "uint256",
          "name": "generatorG",
          "type": "uint256"
        },
        {
          "internalType": "uint256",
          "name": "c1",
          "type": "uint256"
        },
        {
          "internalType": "uint256",
          "name": "publicKeyShare",
          "type": "uint256"
        },
        {
          "internalType": "uint256",
          "name": "partialDecryption",
          "type": "uint256"
        },
        {
          "internalType": "uint256",
          "name": "commitmentA",
          "type": "uint256"
        },
        {
          "internalType": "uint256",
          "name": "commitmentB",
          "type": "uint256"
        },
        {
          "internalType": "uint256",
          "name": "challenge",
          "type": "uint256"
        },
        {
          "internalType": "uint256",
          "name": "response",
          "type": "uint256"
        }
      ],
      "name": "verify",
      "outputs": [
        {
          "internalType": "bool",
          "name": "",
          "type": "bool"
        }
      ],
      "stateMutability": "pure",
      "type": "function"
    }
  ],
  "bytecode": "0x608060405234801561001057600080fd5b506103cc806100206000396000f3fe608060405234801561001057600080fd5b50600436106100415760003560e01c80632d18e571146100465780634f76a98e1461006e5780635ee6abdf14610091575b600080fd5b6100596100543660046102e9565b610099565b60405190151581526020015b60405180910390f35b61008360008051602061037783398151915281565b604051908152602001610065565b610083600581565b60408051602081018a9052908101889052606081018790526080810186905260a0810185905260c0810184905260009081906000805160206103778339815191529060e0016040516020818303038152906040528051906020012060001c6101019190610354565b905080841461014c5760405162461bcd60e51b8152602060048201526012602482015271086d0c2d8d8cadcceca40dad2e6dac2e8c6d60731b60448201526064015b60405180910390fd5b60006101678b85600080516020610377833981519152610285565b905060006000805160206103778339815191526101938b88600080516020610377833981519152610285565b890990508082146101de5760405162461bcd60e51b8152602060048201526015602482015274119a5c9cdd08195c5d585d1a5bdb8819985a5b1959605a1b6044820152606401610143565b60006101f98c87600080516020610377833981519152610285565b905060006000805160206103778339815191526102258c8a600080516020610377833981519152610285565b8a0990508082146102715760405162461bcd60e51b815260206004820152601660248201527514d958dbdb9908195c5d585d1a5bdb8819985a5b195960521b6044820152606401610143565b5060019d9c50505050505050505050505050565b600060016102938386610354565b94505b83156102e1576102a7600285610354565b6001036102c25782806102bc576102bc61033e565b85820990505b600184901c935082806102d7576102d761033e565b8586099450610296565b949350505050565b600080600080600080600080610100898b03121561030657600080fd5b505086359860208801359850604088013597606081013597506080810135965060a0810135955060c0810135945060e0013592509050565b634e487b7160e01b600052601260045260246000fd5b60008261037157634e487b7160e01b600052601260045260246000fd5b50069056fe30644e72e131a029b85045b68181585d2833e84879b9709143e1f593f0000001a2646970667358221220bc86afec626e32141651a1bcab6b6a8c745fc972b2a0019163d6580c8743607164736f6c63430008140033",
  "linkReferences": {},
  "deployedLinkReferences": {}
}