{
  "_format": "hh-sol-artifact-1",
  "contractName": "PrivateVoting",
  "sourceName": "contracts/PrivateVoting.sol",
  "abi": [
    {
      "inputs": [
        {
          "internalType": "address",
          "name": "keyholder0",
          "type": "address"
        },
        {
          "internalType": "address",
          "name": "keyholder1",
          "type": "address"
        },
        {
          "internalType": "address",
          "name": "keyholder2",
          "type": "address"
        },
        {
          "internalType": "address",
          "name": "verifier",
          "type": "address"
        },
        {
          "internalType": "address",
          "name": "chaumPedersen",
          "type": "address"
        }
      ],
      "stateMutability": "nonpayable",
      "type": "constructor"
    },
    {
      "anonymous": false,
      "inputs": [
        {
          "indexed": true,
          "internalType": "uint256",
          "name": "proposalId",
          "type": "uint256"
        },
        {
          "indexed": false,
          "internalType": "uint256",
          "name": "keyholderIndex",
          "type": "uint256"
        }
      ],
      "name": "PartialDecryptionSubmitted",
      "type": "event"
    },
    {
      "anonymous": false,
      "inputs": [
        {
          "indexed": true,
          "internalType": "uint256",
          "name": "proposalId",
          "type": "uint256"
        },
        {
          "indexed": false,
          "internalType": "string",
          "name": "reason",
          "type": "string"
        }
      ],
      "name": "ProposalCancelled",
      "type": "event"
    },
    {
      "anonymous": false,
      "inputs": [
        {
          "indexed": true,
          "internalType": "uint256",
          "name": "proposalId",
          "type": "uint256"
        },
        {
          "indexed": false,
          "internalType": "address",
          "name": "creator",
          "type": "address"
        },
        {
          "indexed": false,
          "internalType": "string",
          "name": "description",
          "type": "string"
        }
      ],
      "name": "ProposalCreated",
      "type": "event"
    },
    {
      "anonymous": false,
      "inputs": [
        {
          "indexed": true,
          "internalType": "uint256",
          "name": "proposalId",
          "type": "uint256"
        },
        {
          "indexed": false,
          "internalType": "uint256[]",
          "name": "result",
          "type": "uint256[]"
        },
        {
          "indexed": false,
          "internalType": "uint256",
          "name": "winningOption",
          "type": "uint256"
        }
      ],
      "name": "ResultRevealed",
      "type": "event"
    },
    {
      "anonymous": false,
      "inputs": [
        {
          "indexed": true,
          "internalType": "uint256",
          "name": "proposalId",
          "type": "uint256"
        },
        {
          "indexed": false,
          "internalType": "uint256",
          "name": "voteCount",
          "type": "uint256"
        }
      ],
      "name": "VoteCast",
      "type": "event"
    },
    {
      "anonymous": false,
      "inputs": [
        {
          "indexed": true,
          "internalType": "uint256",
          "name": "proposalId",
          "type": "uint256"
        },
        {
          "indexed": false,
          "internalType": "uint256",
          "name": "voteCount",
          "type": "uint256"
        }
      ],
      "name": "VotingEnded",
      "type": "event"
    },
    {
      "anonymous": false,
      "inputs": [
        {
          "indexed": true,
          "internalType": "uint256",
          "name": "proposalId",
          "type": "uint256"
        },
        {
          "indexed": false,
          "internalType": "uint256[2]",
          "name": "publicKey",
          "type": "uint256[2]"
        }
      ],
      "name": "VotingStarted",
      "type": "event"
    },
    {
      "inputs": [],
      "name": "FIELD_MODULUS",
      "outputs": [
        {
          "internalType": "uint256",
          "name": "",
          "type": "uint256"
        }
      ],
      "stateMutability": "view",
      "type": "function"
    },
    {
      "inputs": [],
      "name": "GENERATOR_G",
      "outputs": [
        {
          "internalType": "uint256",
          "name": "",
          "type": "uint256"
        }
      ],
      "stateMutability": "view",
      "type": "function"
    },
    {
      "inputs": [],
      "name": "MAX_OPTIONS",
      "outputs": [
        {
          "internalType": "uint256",
          "name": "",
          "type": "uint256"
        }
      ],
      "stateMutability": "view",
      "type": "function"
    },
    {
      "inputs": [],
      "name": "MAX_WEIGHT",
      "outputs": [
        {
          "internalType": "uint256",
          "name": "",
          "type": "uint256"
        }
      ],
      "stateMutability": "view",
      "type": "function"
    },
    {
      "inputs": [],
      "name": "MIN_OPTIONS",
      "outputs": [
        {
          "internalType": "uint256",
          "name": "",
          "type": "uint256"
        }
      ],
      "stateMutability": "view",
      "type": "function"
    },
    {
      "inputs": [],
      "name": "MIN_VOTERS",
      "outputs": [
        {
          "internalType": "uint256",
          "name": "",
          "type": "uint256"
        }
      ],
      "stateMutability": "view",
      "type": "function"
    },
    {
      "inputs": [],
      "name": "NUM_KEYHOLDERS",
      "outputs": [
        {
          "internalType": "uint256",
          "name": "",
          "type": "uint256"
        }
      ],
      "stateMutability": "view",
      "type": "function"
    },
    {
      "inputs": [],
      "name": "THRESHOLD",
      "outputs": [
        {
          "internalType": "uint256",
          "name": "",
          "type": "uint256"
        }
      ],
      "stateMutability": "view",
      "type": "function"
    },
    {
      "inputs": [],
      "name": "TIMEOUT_BLOCKS",
      "outputs": [
        {
          "internalType": "uint256",
          "name": "",
          "type": "uint256"
        }
      ],
      "stateMutability": "view",
      "type": "function"
    },
    {
      "inputs": [
        {
          "internalType": "uint256",
          "name": "proposalId",
          "type": "uint256"
        }
      ],
      "name": "cancelProposal",
      "outputs": [],
      "stateMutability": "nonpayable",
      "type": "function"
    },
    {
      "inputs": [
        {
          "internalType": "uint256",
          "name": "proposalId",
          "type": "uint256"
        },
        {
          "internalType": "uint256[2][]",
          "name": "encryptedVote",
          "type": "uint256[2][]"
        },
        {
          "internalType": "uint256[2]",
          "name": "proofA",
          "type": "uint256[2]"
        },
        {
          "internalType": "uint256[2][2]",
          "name": "proofB",
          "type": "uint256[2][2]"
        },
        {
          "internalType": "uint256[2]",
          "name": "proofC",
          "type": "uint256[2]"
        },
        {
          "internalType": "uint256[]",
          "name": "publicSignals",
          "type": "uint256[]"
        },
        {
          "internalType": "uint256",
          "name": "nullifier",
          "type": "uint256"
        }
      ],
      "name": "castVote",
      "outputs": [],
      "stateMutability": "nonpayable",
      "type": "function"
    },
    {
      "inputs": [],
      "name": "chaumPedersenContract",
      "outputs": [
        {
          "internalType": "address",
          "name": "",
          "type": "address"
        }
      ],
      "stateMutability": "view",
      "type": "function"
    },
    {
      "inputs": [
        {
          "internalType": "string",
          "name": "description",
          "type": "string"
        },
        {
          "internalType": "string[]",
          "name": "options",
          "type": "string[]"
        },
        {
          "internalType": "enum PrivateVoting.VotingMode",
          "name": "votingMode",
          "type": "uint8"
        },
        {
          "internalType": "uint256",
          "name": "startBlock",
          "type": "uint256"
        },
        {
          "internalType": "uint256",
          "name": "endBlock",
          "type": "uint256"
        },
        {
          "internalType": "uint256",
          "name": "eligibilityThreshold",
          "type": "uint256"
        },
        {
          "internalType": "uint256",
          "name": "minVoterThreshold",
          "type": "uint256"
        }
      ],
      "name": "createProposal",
      "outputs": [
        {
          "internalType": "uint256",
          "name": "",
          "type": "uint256"
        }
      ],
      "stateMutability": "nonpayable",
      "type": "function"
    },
    {
      "inputs": [
        {
          "internalType": "uint256",
          "name": "proposalId",
          "type": "uint256"
        }
      ],
      "name": "endVoting",
      "outputs": [],
      "stateMutability": "nonpayable",
      "type": "function"
    },
    {
      "inputs": [
        {
          "internalType": "uint256",
          "name": "proposalId",
          "type": "uint256"
        }
      ],
      "name": "getEncryptedTally",
      "outputs": [
        {
          "components": [
            {
              "internalType": "uint256",
              "name": "c1",
              "type": "uint256"
            },
            {
              "internalType": "uint256",
              "name": "c2",
              "type": "uint256"
            }
          ],
          "internalType": "struct PrivateVoting.ElGamalCiphertext[]",
          "name": "",
          "type": "tuple[]"
        }
      ],
      "stateMutability": "view",
      "type": "function"
    },
    {
      "inputs": [
        {
          "internalType": "uint256",
          "name": "proposalId",
          "type": "uint256"
        }
      ],
      "name": "getProposal",
      "outputs": [
        {
          "components": [
            {
              "internalType": "uint256",
              "name": "id",
              "type": "uint256"
            },
            {
              "internalType": "address",
              "name": "creator",
              "type": "address"
            },
            {
              "internalType": "string",
              "name": "description",
              "type": "string"
            },
            {
              "internalType": "string[]",
              "name": "options",
              "type": "string[]"
            },
            {
              "internalType": "enum PrivateVoting.VotingMode",
              "name": "votingMode",
              "type": "uint8"
            },
            {
              "internalType": "uint256",
              "name": "startBlock",
              "type": "uint256"
            },
            {
              "internalType": "uint256",
              "name": "endBlock",
              "type": "uint256"
            },
            {
              "internalType": "uint256",
              "name": "eligibilityThreshold",
              "type": "uint256"
            },
            {
              "internalType": "uint256",
              "name": "minVoterThreshold",
              "type": "uint256"
            },
            {
              "internalType": "enum PrivateVoting.ProposalStatus",
              "name": "status",
              "type": "uint8"
            },
            {
              "internalType": "uint256[2]",
              "name": "electionPublicKey",
              "type": "uint256[2]"
            },
            {
              "internalType": "uint256[3][2]",
              "name": "publicKeyShares",
              "type": "uint256[3][2]"
            },
            {
              "internalType": "bool[3]",
              "name": "keyholderSubmittedPublicKey",
              "type": "bool[3]"
            },
            {
              "components": [
                {
                  "internalType": "uint256",
                  "name": "c1",
                  "type": "uint256"
                },
                {
                  "internalType": "uint256",
                  "name": "c2",
                  "type": "uint256"
                }
              ],
              "internalType": "struct PrivateVoting.ElGamalCiphertext[]",
              "name": "encryptedTally",
              "type": "tuple[]"
            },
            {
              "internalType": "uint256",
              "name": "voteCount",
              "type": "uint256"
            },
            {
              "internalType": "uint256[2][]",
              "name": "partialDecryptions",
              "type": "uint256[2][]"
            },
            {
              "internalType": "bool[3]",
              "name": "keyholderSubmittedDecryption",
              "type": "bool[3]"
            },
            {
              "internalType": "uint256",
              "name": "partialCount",
              "type": "uint256"
            },
            {
              "internalType": "uint256[]",
              "name": "finalResult",
              "type": "uint256[]"
            },
            {
              "internalType": "uint256",
              "name": "winningOption",
              "type": "uint256"
            },
            {
              "internalType": "uint256",
              "name": "endedAtBlock",
              "type": "uint256"
            }
          ],
          "internalType": "struct PrivateVoting.Proposal",
          "name": "",
          "type": "tuple"
        }
      ],
      "stateMutability": "view",
      "type": "function"
    },
    {
      "inputs": [
        {
          "internalType": "uint256",
          "name": "proposalId",
          "type": "uint256"
        }
      ],
      "name": "getResult",
      "outputs": [
        {
          "internalType": "uint256[]",
          "name": "",
          "type": "uint256[]"
        },
        {
          "internalType": "uint256",
          "name": "",
          "type": "uint256"
        }
      ],
      "stateMutability": "view",
      "type": "function"
    },
    {
      "inputs": [
        {
          "internalType": "uint256",
          "name": "",
          "type": "uint256"
        }
      ],
      "name": "keyholders",
      "outputs": [
        {
          "internalType": "address",
          "name": "",
          "type": "address"
        }
      ],
      "stateMutability": "view",
      "type": "function"
    },
    {
      "inputs": [],
      "name": "proposalCount",
      "outputs": [
        {
          "internalType": "uint256",
          "name": "",
          "type": "uint256"
        }
      ],
      "stateMutability": "view",
      "type": "function"
    },
    {
      "inputs": [
        {
          "internalType": "uint256",
          "name": "",
          "type": "uint256"
        }
      ],
      "name": "proposals",
      "outputs": [
        {
          "internalType": "uint256",
          "name": "id",
          "type": "uint256"
        },
        {
          "internalType": "address",
          "name": "creator",
          "type": "address"
        },
        {
          "internalType": "string",
          "name": "description",
          "type": "string"
        },
        {
          "internalType": "enum PrivateVoting.VotingMode",
          "name": "votingMode",
          "type": "uint8"
        },
        {
          "internalType": "uint256",
          "name": "startBlock",
          "type": "uint256"
        },
        {
          "internalType": "uint256",
          "name": "endBlock",
          "type": "uint256"
        },
        {
          "internalType": "uint256",
          "name": "eligibilityThreshold",
          "type": "uint256"
        },
        {
          "internalType": "uint256",
          "name": "minVoterThreshold",
          "type": "uint256"
        },
        {
          "internalType": "enum PrivateVoting.ProposalStatus",
          "name": "status",
          "type": "uint8"
        },
        {
          "internalType": "uint256",
          "name": "voteCount",
          "type": "uint256"
        },
        {
          "internalType": "uint256",
          "name": "partialCount",
          "type": "uint256"
        },
        {
          "internalType": "uint256",
          "name": "winningOption",
          "type": "uint256"
        },
        {
          "internalType": "uint256",
          "name": "endedAtBlock",
          "type": "uint256"
        }
      ],
      "stateMutability": "view",
      "type": "function"
    },
    {
      "inputs": [
        {
          "internalType": "uint256",
          "name": "proposalId",
          "type": "uint256"
        },
        {
          "internalType": "uint256[2][]",
          "name": "partialDecryption",
          "type": "uint256[2][]"
        },
        {
          "internalType": "uint256[2]",
          "name": "commitmentA",
          "type": "uint256[2]"
        },
        {
          "internalType": "uint256[2]",
          "name": "commitmentB",
          "type": "uint256[2]"
        },
        {
          "internalType": "uint256",
          "name": "challenge",
          "type": "uint256"
        },
        {
          "internalType": "uint256",
          "name": "response",
          "type": "uint256"
        }
      ],
      "name": "submitPartialDecryption",
      "outputs": [],
      "stateMutability": "nonpayable",
      "type": "function"
    },
    {
      "inputs": [
        {
          "internalType": "uint256",
          "name": "proposalId",
          "type": "uint256"
        },
        {
          "internalType": "uint256[2]",
          "name": "publicKey",
          "type": "uint256[2]"
        },
        {
          "internalType": "uint256[2]",
          "name": "publicKeyShare",
          "type": "uint256[2]"
        }
      ],
      "name": "submitPublicKey",
      "outputs": [],
      "stateMutability": "nonpayable",
      "type": "function"
    },
    {
      "inputs": [
        {
          "internalType": "uint256",
          "name": "",
          "type": "uint256"
        },
        {
          "internalType": "uint256",
          "name": "",
          "type": "uint256"
        }
      ],
      "name": "usedNullifiers",
      "outputs": [
        {
          "internalType": "bool",
          "name": "",
          "type": "bool"
        }
      ],
      "stateMutability": "view",
      "type": "function"
    },
    {
      "inputs": [],
      "name": "verifierContract",
      "outputs": [
        {
          "internalType": "address",
          "name": "",
          "type": "address"
        }
      ],
      "stateMutability": "view",
      "type": "function"
    }
  ],
  "bytecode": "0x60806040523480156200001157600080fd5b50604051620032cf380380620032cf8339810160408190526200003491620000b4565b600080546001600160a01b03199081166001600160a01b0397881617909155600180548216958716959095179094556002805485169386169390931790925560068054841691851691909117905560078054909216921691909117905562000124565b80516001600160a01b0381168114620000af57600080fd5b919050565b600080600080600060a08688031215620000cd57600080fd5b620000d88662000097565b9450620000e86020870162000097565b9350620000f86040870162000097565b9250620001086060870162000097565b9150620001186080870162000097565b90509295509295909350565b61319b80620001346000396000f3fe608060405234801561001057600080fd5b50600436106101585760003560e01c80637445917e116100c3578063d1791ae01161007c578063d1791ae0146101b8578063da35c66414610310578063deec5ed314610319578063e0a8f6f514610321578063e4a28a5214610334578063e86942fe1461033d57600080fd5b80637445917e14610289578063785ffb3714610281578063995e4339146102a9578063a4b2c860146102ca578063c7f758a8146102dd578063cf695688146102fd57600080fd5b80634ee5ba6c116101155780634ee5ba6c146102005780634f76a98e146102135780635ee6abdf1461022857806363eb29e614610230578063649f89a51461026e578063651043341461028157600080fd5b8063010cf6441461015d578063013cf08b1461017957806309724728146101a55780630da183d6146101b857806319799a65146101c0578063440ebd84146101eb575b600080fd5b61016661c35081565b6040519081526020015b60405180910390f35b61018c610187366004612481565b610350565b6040516101709d9c9b9a9998979695949392919061251a565b6101666101b33660046126c1565b61044d565b610166600a81565b6007546101d3906001600160a01b031681565b6040516001600160a01b039091168152602001610170565b6101fe6101f9366004612820565b61073b565b005b6101fe61020e366004612928565b610a77565b61016660008051602061314683398151915281565b610166600581565b61025e61023e366004612a1f565b600460209081526000928352604080842090915290825290205460ff1681565b6040519015158152602001610170565b6101fe61027c366004612481565b610e66565b610166600281565b61029c610297366004612481565b610fe6565b6040516101709190612a87565b6102bc6102b7366004612481565b61106f565b604051610170929190612aca565b6101d36102d8366004612481565b611144565b6102f06102eb366004612481565b611164565b6040516101709190612c1e565b6006546101d3906001600160a01b031681565b61016660055481565b610166600381565b6101fe61032f366004612481565b611665565b61016661271081565b6101fe61034b366004612dc7565b611782565b60036020526000908152604090208054600182015460028301805492936001600160a01b039092169261038290612e44565b80601f01602080910402602001604051908101604052809291908181526020018280546103ae90612e44565b80156103fb5780601f106103d0576101008083540402835291602001916103fb565b820191906000526020600020905b8154815290600101906020018083116103de57829003601f168201915b50505050600483015460058401546006850154600786015460088701546009880154601489015460178a015460198b0154601a909b0154999a60ff9889169a979950959794969395949092169390928d565b600060028751101580156104635750600a875111155b6104ac5760405162461bcd60e51b8152602060048201526015602482015274125b9d985b1a59081bdc1d1a5bdb9cc818dbdd5b9d605a1b60448201526064015b60405180910390fd5b438510156104f25760405162461bcd60e51b815260206004820152601360248201527214dd185c9d08189b1bd8dac81a5b881c185cdd606a1b60448201526064016104a3565b8484116105415760405162461bcd60e51b815260206004820152601d60248201527f456e6420626c6f636b206d75737420626520616674657220737461727400000060448201526064016104a3565b60018310156105925760405162461bcd60e51b815260206004820152601d60248201527f496e76616c696420656c69676962696c697479207468726573686f6c6400000060448201526064016104a3565b600a8210156105dc5760405162461bcd60e51b81526020600482015260166024820152754d696e696d756d20766f7465727320746f6f206c6f7760501b60448201526064016104a3565b60058054600091826105ed83612e94565b9091555060008181526003602052604090208181556001810180546001600160a01b03191633179055909150600281016106278b82612ef8565b50885161063d90600383019060208c019061215f565b5060048101805489919060ff19166001838181111561065e5761065e6124e0565b02179055506005810187905560068101869055600781018590556008810184905560098101805460ff19169055600060148201819055601782018190555b89518110156106f357604080518082019091526001808252602080830182815260138601805480850182556000918252929020935160029092029093019081559151910155806106eb81612e94565b91505061069c565b50817f7585f467599d0f008985f231af99293be388626ac16ca59505c2f8f88969cd63338c604051610726929190612fb8565b60405180910390a25098975050505050505050565b600083815260036020526040812090600982015460ff166004811115610763576107636124e0565b146107a35760405162461bcd60e51b815260206004820152601060248201526f4e6f7420696e20444b4720706861736560801b60448201526064016104a3565b600360005b60038110156107ef57600081600381106107c4576107c4612fdc565b01546001600160a01b031633036107dd578091506107ef565b806107e781612e94565b9150506107a8565b50600381106108325760405162461bcd60e51b815260206004820152600f60248201526e2737ba10309035b2bcb437b63232b960891b60448201526064016104a3565b81601201816003811061084757610847612fdc565b602081049091015460ff601f9092166101000a9004161561089e5760405162461bcd60e51b8152602060048201526011602482015270105b1c9958591e481cdd589b5a5d1d1959607a1b60448201526064016104a3565b80156109505760005b8181101561094e578260120181600381106108c4576108c4612fdc565b602081049091015460ff601f9092166101000a9004161561093c578451600a8401541480156108fa57506020850151600b840154145b61093c5760405162461bcd60e51b81526020600482015260136024820152720a0eac4d8d2c640d6caf240dad2e6dac2e8c6d606b1b60448201526064016104a3565b8061094681612e94565b9150506108a7565b505b61095f600a83018560026121b5565b508282600c01826002811061097657610976612fdc565b600302019060026109889291906121ef565b5060018260120182600381106109a0576109a0612fdc565b602091828204019190066101000a81548160ff0219169083151502179055506000805b6003811015610a1c578360120181600381106109e1576109e1612fdc565b602081049091015460ff601f9092166101000a90041615610a0a5781610a0681612e94565b9250505b80610a1481612e94565b9150506109c3565b5060038103610a6f5760098301805460ff1916600117905560405186907fc05db2c70baadb9fc5fd21df5583c14c1761d00d7fb5d27852474656b36f786290610a66908890612ff2565b60405180910390a25b505050505050565b60008781526003602052604090206001600982015460ff166004811115610aa057610aa06124e0565b14610ae15760405162461bcd60e51b8152602060048201526011602482015270566f74696e67206e6f742061637469766560781b60448201526064016104a3565b80600501544310158015610af9575080600601544311155b610b3d5760405162461bcd60e51b815260206004820152601560248201527413dd5d1cda5919481d9bdd1a5b99c81c195c9a5bd9605a1b60448201526064016104a3565b6003810154875114610b915760405162461bcd60e51b815260206004820152601b60248201527f566f746520766563746f72206c656e677468206d69736d61746368000000000060448201526064016104a3565b600088815260046020908152604080832085845290915290205460ff1615610bf45760405162461bcd60e51b8152602060048201526016602482015275139d5b1b1a599a595c88185b1c9958591e481d5cd95960521b60448201526064016104a3565b6006546040516361971b8760e11b81526001600160a01b039091169063c32e370e90610c2a908990899089908990600401613000565b602060405180830381865afa158015610c47573d6000803e3d6000fd5b505050506040513d601f19601f82011682018060405250810190610c6b919061306e565b610ca75760405162461bcd60e51b815260206004820152600d60248201526c24b73b30b634b210383937b7b360991b60448201526064016104a3565b60008881526004602090815260408083208584529091528120805460ff191660011790555b8751811015610e0657600080516020613146833981519152888281518110610cf657610cf6612fdc565b6020026020010151600060028110610d1057610d10612fdc565b6020020151836013018381548110610d2a57610d2a612fdc565b90600052602060002090600202016000015409826013018281548110610d5257610d52612fdc565b6000918252602090912060029091020155600080516020613146833981519152888281518110610d8457610d84612fdc565b6020026020010151600160028110610d9e57610d9e612fdc565b6020020151836013018381548110610db857610db8612fdc565b90600052602060002090600202016001015409826013018281548110610de057610de0612fdc565b600091825260209091206001600290920201015580610dfe81612e94565b915050610ccc565b50601481018054906000610e1983612e94565b9190505550877fc31875ef3ed5138b71a0c1da7e494bc4d2ba4f567084ea481ec9c45f3a93948b8260140154604051610e5491815260200190565b60405180910390a25050505050505050565b60008181526003602052604090206001600982015460ff166004811115610e8f57610e8f6124e0565b14610ed05760405162461bcd60e51b8152602060048201526011602482015270566f74696e67206e6f742061637469766560781b60448201526064016104a3565b80600601544311610f1a5760405162461bcd60e51b8152602060048201526014602482015273566f74696e67207374696c6c206f6e676f696e6760601b60448201526064016104a3565b806008015481601401541015610f9a5760098101805460ff1916600417905560408051602080825260139082015272696e73756666696369656e7420766f7465727360681b9181019190915282907fc7c129e53e59dadfa16305619e80c7519f1f6912c10915359fd75b56bcecdd7b906060015b60405180910390a25050565b60098101805460ff1916600217905543601a820155601481015460405190815282907f04e400203b6647e7ab88412380ee2430174c77bd98021012d3647eb3fa63f63f90602001610f8e565b606060036000838152602001908152602001600020601301805480602002602001604051908101604052809291908181526020016000905b828210156110645783829060005260206000209060020201604051806040016040529081600082015481526020016001820154815250508152602001906001019061101e565b505050509050919050565b6000818152600360208190526040822060609291600982015460ff16600481111561109c5761109c6124e0565b146110df5760405162461bcd60e51b815260206004820152601360248201527214995cdd5b1d081b9bdd081c995d99585b1959606a1b60448201526064016104a3565b8060180181601901548180548060200260200160405190810160405280929190818152602001828054801561113357602002820191906000526020600020905b81548152602001906001019080831161111f575b505050505091509250925050915091565b6000816003811061115457600080fd5b01546001600160a01b0316905081565b61116c61221c565b60008281526003602090815260409182902082516102a0810184528154815260018201546001600160a01b03169281019290925260028101805492939192918401916111b790612e44565b80601f01602080910402602001604051908101604052809291908181526020018280546111e390612e44565b80156112305780601f1061120557610100808354040283529160200191611230565b820191906000526020600020905b81548152906001019060200180831161121357829003601f168201915b5050505050815260200160038201805480602002602001604051908101604052809291908181526020016000905b8282101561130a57838290600052602060002001805461127d90612e44565b80601f01602080910402602001604051908101604052809291908181526020018280546112a990612e44565b80156112f65780601f106112cb576101008083540402835291602001916112f6565b820191906000526020600020905b8154815290600101906020018083116112d957829003601f168201915b50505050508152602001906001019061125e565b50505090825250600482015460209091019060ff166001811115611330576113306124e0565b6001811115611341576113416124e0565b815260058201546020820152600682015460408201526007820154606082015260088201546080820152600982015460a09091019060ff16600481111561138a5761138a6124e0565b600481111561139b5761139b6124e0565b8152604080518082019182905260209092019190600a84019060029082845b8154815260200190600101908083116113ba57505050918352505060408051808201909152602090910190600c830160026000835b828210156114365760408051606081019182905290600384810287019182845b81548152602001906001019080831161140f575050505050815260200190600101906113ef565b50505090825250604080516060810191829052602090920191906012840190600390826000855b825461010083900a900460ff16151581526020600192830181810494850194909303909202910180841161145d5790505050505050815260200160138201805480602002602001604051908101604052809291908181526020016000905b82821015611501578382906000526020600020906002020160405180604001604052908160008201548152602001600182015481525050815260200190600101906114bb565b5050505081526020016014820154815260200160158201805480602002602001604051908101604052809291908181526020016000905b828210156115885760008481526020902060408051808201918290529160028581029091019182845b81548152602001906001019080831161156157505050505081526020019060010190611538565b50505090825250604080516060810191829052602090920191906016840190600390826000855b825461010083900a900460ff1615158152602060019283018181049485019490930390920291018084116115af57905050505050508152602001601782015481526020016018820180548060200260200160405190810160405280929190818152602001828054801561164157602002820191906000526020600020905b81548152602001906001019080831161162d575b5050505050815260200160198201548152602001601a820154815250509050919050565b60008181526003602052604090206002600982015460ff16600481111561168e5761168e6124e0565b146116d05760405162461bcd60e51b8152602060048201526012602482015271141c9bdc1bdcd85b081b9bdd08195b99195960721b60448201526064016104a3565b61c35081601a01546116e291906130ad565b43116117265760405162461bcd60e51b8152602060048201526013602482015272151a5b595bdd5d081b9bdd081c995858da1959606a1b60448201526064016104a3565b60098101805460ff19166004179055604080516020808252600790820152661d1a5b595bdd5d60ca1b9181019190915282907fc7c129e53e59dadfa16305619e80c7519f1f6912c10915359fd75b56bcecdd7b90606001610f8e565b60008681526003602052604090206002600982015460ff1660048111156117ab576117ab6124e0565b146117eb5760405162461bcd60e51b815260206004820152601060248201526f159bdd1a5b99c81b9bdd08195b99195960821b60448201526064016104a3565b600360005b6003811015611837576000816003811061180c5761180c612fdc565b01546001600160a01b0316330361182557809150611837565b8061182f81612e94565b9150506117f0565b506003811061187a5760405162461bcd60e51b815260206004820152600f60248201526e2737ba10309035b2bcb437b63232b960891b60448201526064016104a3565b81601601816003811061188f5761188f612fdc565b602081049091015460ff601f9092166101000a900416156118e65760405162461bcd60e51b8152602060048201526011602482015270105b1c9958591e481cdd589b5a5d1d1959607a1b60448201526064016104a3565b60038201548751146119455760405162461bcd60e51b815260206004820152602260248201527f5061727469616c2064656372797074696f6e206c656e677468206d69736d61746044820152610c6d60f31b60648201526084016104a3565b6007546013830180546001600160a01b0390921691632d18e5719160059160009061197257611972612fdc565b90600052602060002090600202016000015485600c01856002811061199957611999612fdc565b60030201600001548b6000815181106119b4576119b4612fdc565b60200260200101516000600281106119ce576119ce612fdc565b60200201518b518b5160405160e088901b6001600160e01b03191681526004810196909652602486019490945260448501929092526064840152608483015260a482015260c4810187905260e4810186905261010401602060405180830381865afa158015611a41573d6000803e3d6000fd5b505050506040513d601f19601f82011682018060405250810190611a65919061306e565b611ab15760405162461bcd60e51b815260206004820152601c60248201527f496e76616c696420436861756d2d506564657273656e2070726f6f660000000060448201526064016104a3565b8160170154600003611b2957865167ffffffffffffffff811115611ad757611ad76125a9565b604051908082528060200260200182016040528015611b1057816020015b611afd6122ff565b815260200190600190039081611af55790505b508051611b2791601585019160209091019061231d565b505b60005b8751811015611c0f578260170154600003611b9257878181518110611b5357611b53612fdc565b6020026020010151836015018281548110611b7057611b70612fdc565b9060005260206000209060020201906002611b8c9291906121b5565b50611bfd565b601783015415611ba3576001611ba6565b60005b60ff16821115611bfd57878181518110611bc257611bc2612fdc565b6020026020010151836015018281548110611bdf57611bdf612fdc565b9060005260206000209060020201906002611bfb9291906121b5565b505b80611c0781612e94565b915050611b2c565b506001826016018260038110611c2757611c27612fdc565b602091828204019190066101000a81548160ff021916908315150217905550816017016000815480929190611c5b90612e94565b9190505550877feed31893abdc145d4e42880de66c238b306a97966b0a9dae6968956cafcadfb482604051611c9291815260200190565b60405180910390a26002826017015410611caf57611caf88611cb9565b5050505050505050565b60008181526003602081905260409091209081015467ffffffffffffffff811115611ce657611ce66125a9565b604051908082528060200260200182016040528015611d0f578160200160208202803683370190505b508051611d26916018840191602090910190612373565b506040805160028082526060820183526000926020830190803683370190505090506000805b600381108015611d5c5750600282105b15611dcf57836016018160038110611d7657611d76612fdc565b602081049091015460ff601f9092166101000a90041615611dbd5780838381518110611da457611da4612fdc565b602090810291909101015281611db981612e94565b9250505b80611dc781612e94565b915050611d4c565b5060005b6003840154811015611fc657600083600081518110611df457611df4612fdc565b60200260200101516001611e0891906130ad565b9050600084600181518110611e1f57611e1f612fdc565b60200260200101516001611e3391906130ad565b90506000600080516020613146833981519152611e67611e5385856130c0565b600080516020613146833981519152612086565b830990506000600080516020613146833981519152611e89611e5385876130c0565b850990506000600080516020613146833981519152611eed8a6015018881548110611eb657611eb6612fdc565b9060005260206000209060020201600160028110611ed657611ed6612fdc565b0154846000805160206131468339815191526120a6565b611f2b8b6015018981548110611f0557611f05612fdc565b6000918252602082206002909102010154866000805160206131468339815191526120a6565b0990506000600080516020613146833981519152611f5783600080516020613146833981519152612086565b8b6013018981548110611f6c57611f6c612fdc565b906000526020600020906002020160010154099050611f8a8161210a565b8a6018018881548110611f9f57611f9f612fdc565b90600052602060002001819055505050505050508080611fbe90612e94565b915050611dd3565b5060008060005b60188601548110156120385782866018018281548110611fef57611fef612fdc565b906000526020600020015411156120265785601801818154811061201557612015612fdc565b906000526020600020015492508091505b8061203081612e94565b915050611fcd565b506019850181905560098501805460ff1916600317905560405186907f0e7fbd89b85f9a37de65736f56236b95e0e692fb5bef8401e5f89c5960b700f590610a6690601889019085906130d3565b600061209d836120976002856130c0565b846120a6565b90505b92915050565b600060016120b48386613123565b94505b8315612102576120c8600285613123565b6001036120e35782806120dd576120dd613097565b85820990505b600184901c935082806120f8576120f8613097565b85860994506120b7565b949350505050565b60006298968060056001835b8381116121535785820361212d5795945050505050565b60008051602061314683398151915283830991508061214b81612e94565b915050612116565b50600095945050505050565b8280548282559060005260206000209081019282156121a5579160200282015b828111156121a557825182906121959082612ef8565b509160200191906001019061217f565b506121b19291506123ad565b5090565b82600281019282156121e3579160200282015b828111156121e35782518255916020019190600101906121c8565b506121b19291506123ca565b82600381019282156121e357916020028201828111156121e35782518255916020019190600101906121c8565b604051806102a001604052806000815260200160006001600160a01b03168152602001606081526020016060815260200160006001811115612260576122606124e0565b81526020016000815260200160008152602001600081526020016000815260200160006004811115612294576122946124e0565b81526020016122a16122ff565b81526020016122ae6123df565b81526020016122bb61240c565b81526020016060815260200160008152602001606081526020016122dd61240c565b8152602001600081526020016060815260200160008152602001600081525090565b60405180604001604052806002906020820280368337509192915050565b828054828255906000526020600020906002028101928215612367579160200282015b8281111561236757825161235790839060026121b5565b5091602001919060020190612340565b506121b192915061242a565b8280548282559060005260206000209081019282156121e357916020028201828111156121e35782518255916020019190600101906121c8565b808211156121b15760006123c18282612444565b506001016123ad565b5b808211156121b157600081556001016123cb565b60405180604001604052806002905b6123f661240c565b8152602001906001900390816123ee5790505090565b60405180606001604052806003906020820280368337509192915050565b808211156121b1576000808255600182015560020161242a565b50805461245090612e44565b6000825580601f10612460575050565b601f01602090049060005260206000209081019061247e91906123ca565b50565b60006020828403121561249357600080fd5b5035919050565b6000815180845260005b818110156124c0576020818501810151868301820152016124a4565b506000602082860101526020601f19601f83011685010191505092915050565b634e487b7160e01b600052602160045260246000fd5b60028110612506576125066124e0565b9052565b60058110612506576125066124e0565b8d81526001600160a01b038d1660208201526101a0604082018190526000906125458382018f61249a565b915050612555606083018d6124f6565b8a60808301528960a08301528860c08301528760e083015261257b61010083018861250a565b856101208301528461014083015283610160830152826101808301529e9d5050505050505050505050505050565b634e487b7160e01b600052604160045260246000fd5b6040805190810167ffffffffffffffff811182821017156125e2576125e26125a9565b60405290565b604051601f8201601f1916810167ffffffffffffffff81118282101715612611576126116125a9565b604052919050565b600082601f83011261262a57600080fd5b813567ffffffffffffffff811115612644576126446125a9565b612657601f8201601f19166020016125e8565b81815284602083860101111561266c57600080fd5b816020850160208301376000918101602001919091529392505050565b600067ffffffffffffffff8211156126a3576126a36125a9565b5060051b60200190565b8035600281106126bc57600080fd5b919050565b600080600080600080600060e0888a0312156126dc57600080fd5b67ffffffffffffffff80893511156126f357600080fd5b6127008a8a358b01612619565b975060208901358181111561271457600080fd5b8901601f81018b1361272557600080fd5b803561273861273382612689565b6125e8565b8082825260208201915060208360051b85010192508d83111561275a57600080fd5b602084015b8381101561279357858135111561277557600080fd5b6127858f60208335880101612619565b83526020928301920161275f565b50809a5050505050506127a8604089016126ad565b969995985095966060810135965060808101359560a0820135955060c0909101359350915050565b600082601f8301126127e157600080fd5b6127e96125bf565b8060408401858111156127fb57600080fd5b845b818110156128155780358452602093840193016127fd565b509095945050505050565b600080600060a0848603121561283557600080fd5b8335925061284685602086016127d0565b915061285585606086016127d0565b90509250925092565b600082601f83011261286f57600080fd5b8135602061287f61273383612689565b82815260069290921b8401810191818101908684111561289e57600080fd5b8286015b848110156128c2576128b488826127d0565b8352918301916040016128a2565b509695505050505050565b600082601f8301126128de57600080fd5b813560206128ee61273383612689565b82815260059290921b8401810191818101908684111561290d57600080fd5b8286015b848110156128c25780358352918301918301612911565b6000806000806000806000610180888a03121561294457600080fd5b87359650602088013567ffffffffffffffff8082111561296357600080fd5b61296f8b838c0161285e565b9750604091506129818b838c016127d0565b96508a609f8b011261299257600080fd5b61299a6125bf565b806101008c018d8111156129ad57600080fd5b60808d015b818110156129d3576129c48f826127d0565b845260209093019285016129b2565b508198506129e18e826127d0565b97505050506101408a01359150808211156129fb57600080fd5b50612a088a828b016128cd565b925050610160880135905092959891949750929550565b60008060408385031215612a3257600080fd5b50508035926020909101359150565b600081518084526020808501945080840160005b83811015612a7c578151805188528301518388015260409096019590820190600101612a55565b509495945050505050565b60208152600061209d6020830184612a41565b600081518084526020808501945080840160005b83811015612a7c57815187529582019590820190600101612aae565b604081526000612add6040830185612a9a565b90508260208301529392505050565b600082825180855260208086019550808260051b84010181860160005b84811015612b3757601f19868403018952612b2583835161249a565b98840198925090830190600101612b09565b5090979650505050505050565b8060005b6002811015612b67578151845260209384019390910190600101612b48565b50505050565b806000805b6002811015612bb857825185835b6003811015612b9f578251825260209283019290910190600101612b80565b5050506060949094019360209290920191600101612b72565b5050505050565b8060005b6003811015612b675781511515845260209384019390910190600101612bc3565b600081518084526020808501945080840160005b83811015612a7c57612c0b878351612b44565b6040969096019590820190600101612bf8565b602081528151602082015260006020830151612c4560408401826001600160a01b03169052565b5060408301516103e0806060850152612c6261040085018361249a565b91506060850151601f1980868503016080870152612c808483612aec565b935060808701519150612c9660a08701836124f6565b60a087015160c087015260c087015160e087015260e08701519150610100828188015280880151925050610120828188015280880151925050610140612cde8188018461250a565b8701519150610160612cf287820184612b44565b87015191506101a0612d0687820184612b6d565b6101808801519250610260612d1d81890185612bbf565b81890151935082888703016102c0890152612d388685612a41565b95506101c08901516102e08901526101e089015193508288870301610300890152612d638685612be4565b95506102008901519350612d7b610320890185612bbf565b610220890151610380890152610240890151935082888703016103a0890152612da48685612a9a565b908901516103c08901526102809098015193909601929092525093949350505050565b6000806000806000806101008789031215612de157600080fd5b86359550602087013567ffffffffffffffff811115612dff57600080fd5b612e0b89828a0161285e565b955050612e1b88604089016127d0565b9350612e2a88608089016127d0565b925060c0870135915060e087013590509295509295509295565b600181811c90821680612e5857607f821691505b602082108103612e7857634e487b7160e01b600052602260045260246000fd5b50919050565b634e487b7160e01b600052601160045260246000fd5b600060018201612ea657612ea6612e7e565b5060010190565b601f821115612ef357600081815260208120601f850160051c81016020861015612ed45750805b601f850160051c820191505b81811015610a6f57828155600101612ee0565b505050565b815167ffffffffffffffff811115612f1257612f126125a9565b612f2681612f208454612e44565b84612ead565b602080601f831160018114612f5b5760008415612f435750858301515b600019600386901b1c1916600185901b178555610a6f565b600085815260208120601f198616915b82811015612f8a57888601518255948401946001909101908401612f6b565b5085821015612fa85787850151600019600388901b60f8161c191681555b5050505050600190811b01905550565b6001600160a01b03831681526040602082018190526000906121029083018461249a565b634e487b7160e01b600052603260045260246000fd5b604081016120a08284612b44565b600061012061300f8388612b44565b60408084018760005b600281101561303f5761302c838351612b44565b9183019160209190910190600101613018565b5050505061305060c0840186612b44565b8061010084015261306381840185612a9a565b979650505050505050565b60006020828403121561308057600080fd5b8151801515811461309057600080fd5b9392505050565b634e487b7160e01b600052601260045260246000fd5b808201808211156120a0576120a0612e7e565b818103818111156120a0576120a0612e7e565b6000604082016040835280855480835260608501915086600052602092508260002060005b82811015613114578154845292840192600191820191016130f8565b50505092019290925292915050565b60008261314057634e487b7160e01b600052601260045260246000fd5b50069056fe30644e72e131a029b85045b68181585d2833e84879b9709143e1f593f0000001a26469706673582212201861d1730467b76abadcaa0068e7cdb120a4e2155e517128b7135dd80822f5ba64736f6c63430008140033",
  "linkReferences": {},
  "deployedLinkReferences": {}
}