{
  "_format": "hh-sol-artifact-1",
  "contractName": "MockVerifier",
  "sourceName": "contracts/MockVerifier.sol",
  "abi": [
    {
      "inputs": [
        {
          "internalType": "uint256[2]",
          "name": "a",
          "type": "uint256[2]"
        },
        {
          "internalType": "uint256[2][2]",
          "name": "b",
          "type": "uint256[2][2]"
        },
        {
          "internalType": "uint256[2]",
          "name": "c",
          "type": "uint256[2]"
        },
        {
          "internalType": "uint256[]",
          "name": "input",
          "type": "uint256[]"
        }
      ],
      "name": "verifyProof",
      "outputs": [
        {
          "internalType": "bool",
          "name": "",
          "type": "bool"
        }
      ],
      "stateMutability": "pure",
      "type": "function"
    }
  ],
  "bytecode": "0x608060405234801561001057600080fd5b5061015a806100206000396000f3fe608060405234801561001057600080fd5b506004361061002b5760003560e01c8063c32e370e14610030575b600080fd5b61004961003e366004610074565b600195945050505050565b604051901515815260200160405180910390f35b806040810183101561006e57600080fd5b92915050565b6000806000806000610120868803121561008d57600080fd5b610097878761005d565b945060c08601878111156100aa57600080fd5b6040870194506100ba888261005d565b93505061010086013567ffffffffffffffff808211156100d957600080fd5b818801915088601f8301126100ed57600080fd5b8135818111156100fc57600080fd5b8960208260051b850101111561011157600080fd5b969995985093965060200194939250505056fea26469706673582212208ec1685c056069a5bf49647a3ced3fe48fb092be8bc5fcac9abf44a1c16a348c64736f6c63430008140033",
  "linkReferences": {},
  "deployedLinkReferences": {}
}